{
  "_format": "hh-sol-artifact-1",
  "contractName": "MyEpicNFT",
  "sourceName": "contracts/MyEpicNFT.sol",
  "abi": [
    {
      "inputs": [],
      "stateMutability": "nonpayable",
      "type": "constructor"
    },
    {
      "anonymous": false,
      "inputs": [
        {
          "indexed": true,
          "internalType": "address",
          "name": "owner",
          "type": "address"
        },
        {
          "indexed": true,
          "internalType": "address",
          "name": "approved",
          "type": "address"
        },
        {
          "indexed": true,
          "internalType": "uint256",
          "name": "tokenId",
          "type": "uint256"
        }
      ],
      "name": "Approval",
      "type": "event"
    },
    {
      "anonymous": false,
      "inputs": [
        {
          "indexed": true,
          "internalType": "address",
          "name": "owner",
          "type": "address"
        },
        {
          "indexed": true,
          "internalType": "address",
          "name": "operator",
          "type": "address"
        },
        {
          "indexed": false,
          "internalType": "bool",
          "name": "approved",
          "type": "bool"
        }
      ],
      "name": "ApprovalForAll",
      "type": "event"
    },
    {
      "anonymous": false,
      "inputs": [
        {
          "indexed": false,
          "internalType": "address",
          "name": "sender",
          "type": "address"
        },
        {
          "indexed": false,
          "internalType": "uint256",
          "name": "tokenId",
          "type": "uint256"
        }
      ],
      "name": "NewEpicNFTMinted",
      "type": "event"
    },
    {
      "anonymous": false,
      "inputs": [
        {
          "indexed": true,
          "internalType": "address",
          "name": "from",
          "type": "address"
        },
        {
          "indexed": true,
          "internalType": "address",
          "name": "to",
          "type": "address"
        },
        {
          "indexed": true,
          "internalType": "uint256",
          "name": "tokenId",
          "type": "uint256"
        }
      ],
      "name": "Transfer",
      "type": "event"
    },
    {
      "inputs": [
        {
          "internalType": "address",
          "name": "to",
          "type": "address"
        },
        {
          "internalType": "uint256",
          "name": "tokenId",
          "type": "uint256"
        }
      ],
      "name": "approve",
      "outputs": [],
      "stateMutability": "nonpayable",
      "type": "function"
    },
    {
      "inputs": [
        {
          "internalType": "address",
          "name": "owner",
          "type": "address"
        }
      ],
      "name": "balanceOf",
      "outputs": [
        {
          "internalType": "uint256",
          "name": "",
          "type": "uint256"
        }
      ],
      "stateMutability": "view",
      "type": "function"
    },
    {
      "inputs": [
        {
          "internalType": "uint256",
          "name": "tokenId",
          "type": "uint256"
        }
      ],
      "name": "getApproved",
      "outputs": [
        {
          "internalType": "address",
          "name": "",
          "type": "address"
        }
      ],
      "stateMutability": "view",
      "type": "function"
    },
    {
      "inputs": [],
      "name": "getTotalNFTs",
      "outputs": [
        {
          "internalType": "uint256",
          "name": "",
          "type": "uint256"
        }
      ],
      "stateMutability": "view",
      "type": "function"
    },
    {
      "inputs": [],
      "name": "getTotalNFTsMintedSoFar",
      "outputs": [
        {
          "internalType": "uint256",
          "name": "",
          "type": "uint256"
        }
      ],
      "stateMutability": "view",
      "type": "function"
    },
    {
      "inputs": [
        {
          "internalType": "address",
          "name": "owner",
          "type": "address"
        },
        {
          "internalType": "address",
          "name": "operator",
          "type": "address"
        }
      ],
      "name": "isApprovedForAll",
      "outputs": [
        {
          "internalType": "bool",
          "name": "",
          "type": "bool"
        }
      ],
      "stateMutability": "view",
      "type": "function"
    },
    {
      "inputs": [],
      "name": "makeAnEpicNFT",
      "outputs": [],
      "stateMutability": "nonpayable",
      "type": "function"
    },
    {
      "inputs": [],
      "name": "name",
      "outputs": [
        {
          "internalType": "string",
          "name": "",
          "type": "string"
        }
      ],
      "stateMutability": "view",
      "type": "function"
    },
    {
      "inputs": [
        {
          "internalType": "uint256",
          "name": "tokenId",
          "type": "uint256"
        }
      ],
      "name": "ownerOf",
      "outputs": [
        {
          "internalType": "address",
          "name": "",
          "type": "address"
        }
      ],
      "stateMutability": "view",
      "type": "function"
    },
    {
      "inputs": [
        {
          "internalType": "uint256",
          "name": "tokenId",
          "type": "uint256"
        }
      ],
      "name": "pickRandomColor",
      "outputs": [
        {
          "internalType": "string",
          "name": "",
          "type": "string"
        }
      ],
      "stateMutability": "view",
      "type": "function"
    },
    {
      "inputs": [
        {
          "internalType": "uint256",
          "name": "tokenId",
          "type": "uint256"
        }
      ],
      "name": "pickRandomFirstWord",
      "outputs": [
        {
          "internalType": "string",
          "name": "",
          "type": "string"
        }
      ],
      "stateMutability": "view",
      "type": "function"
    },
    {
      "inputs": [
        {
          "internalType": "uint256",
          "name": "tokenId",
          "type": "uint256"
        }
      ],
      "name": "pickRandomSecondWord",
      "outputs": [
        {
          "internalType": "string",
          "name": "",
          "type": "string"
        }
      ],
      "stateMutability": "view",
      "type": "function"
    },
    {
      "inputs": [
        {
          "internalType": "uint256",
          "name": "tokenId",
          "type": "uint256"
        }
      ],
      "name": "pickRandomThirdWord",
      "outputs": [
        {
          "internalType": "string",
          "name": "",
          "type": "string"
        }
      ],
      "stateMutability": "view",
      "type": "function"
    },
    {
      "inputs": [
        {
          "internalType": "address",
          "name": "from",
          "type": "address"
        },
        {
          "internalType": "address",
          "name": "to",
          "type": "address"
        },
        {
          "internalType": "uint256",
          "name": "tokenId",
          "type": "uint256"
        }
      ],
      "name": "safeTransferFrom",
      "outputs": [],
      "stateMutability": "nonpayable",
      "type": "function"
    },
    {
      "inputs": [
        {
          "internalType": "address",
          "name": "from",
          "type": "address"
        },
        {
          "internalType": "address",
          "name": "to",
          "type": "address"
        },
        {
          "internalType": "uint256",
          "name": "tokenId",
          "type": "uint256"
        },
        {
          "internalType": "bytes",
          "name": "_data",
          "type": "bytes"
        }
      ],
      "name": "safeTransferFrom",
      "outputs": [],
      "stateMutability": "nonpayable",
      "type": "function"
    },
    {
      "inputs": [
        {
          "internalType": "address",
          "name": "operator",
          "type": "address"
        },
        {
          "internalType": "bool",
          "name": "approved",
          "type": "bool"
        }
      ],
      "name": "setApprovalForAll",
      "outputs": [],
      "stateMutability": "nonpayable",
      "type": "function"
    },
    {
      "inputs": [
        {
          "internalType": "bytes4",
          "name": "interfaceId",
          "type": "bytes4"
        }
      ],
      "name": "supportsInterface",
      "outputs": [
        {
          "internalType": "bool",
          "name": "",
          "type": "bool"
        }
      ],
      "stateMutability": "view",
      "type": "function"
    },
    {
      "inputs": [],
      "name": "symbol",
      "outputs": [
        {
          "internalType": "string",
          "name": "",
          "type": "string"
        }
      ],
      "stateMutability": "view",
      "type": "function"
    },
    {
      "inputs": [
        {
          "internalType": "uint256",
          "name": "tokenId",
          "type": "uint256"
        }
      ],
      "name": "tokenURI",
      "outputs": [
        {
          "internalType": "string",
          "name": "",
          "type": "string"
        }
      ],
      "stateMutability": "view",
      "type": "function"
    },
    {
      "inputs": [
        {
          "internalType": "address",
          "name": "from",
          "type": "address"
        },
        {
          "internalType": "address",
          "name": "to",
          "type": "address"
        },
        {
          "internalType": "uint256",
          "name": "tokenId",
          "type": "uint256"
        }
      ],
      "name": "transferFrom",
      "outputs": [],
      "stateMutability": "nonpayable",
      "type": "function"
    }
  ],
  "bytecode": "0x6080604052600f60085560405180610160016040528061012f815260200162004e9d61012f9139600990805190602001906200003d92919062000edd565b5060405180610100016040528060d3815260200162004fcc60d39139600a90805190602001906200007092919062000edd565b506040518060800160405280605681526020016200509f60569139600b9080519060200190620000a292919062000edd565b506040518061020001604052806040518060400160405280600581526020017f4d696c616e00000000000000000000000000000000000000000000000000000081525081526020016040518060400160405280600681526020017f56656e696365000000000000000000000000000000000000000000000000000081525081526020016040518060400160405280600481526020017f526f6d650000000000000000000000000000000000000000000000000000000081525081526020016040518060400160405280600581526020017f547572696e00000000000000000000000000000000000000000000000000000081525081526020016040518060400160405280600681526020017f4d6f6e61636f000000000000000000000000000000000000000000000000000081525081526020016040518060400160405280600881526020017f4e65772d596f726b00000000000000000000000000000000000000000000000081525081526020016040518060400160405280600681526020017f4d6164726964000000000000000000000000000000000000000000000000000081525081526020016040518060400160405280600981526020017f42617263656c6f6e61000000000000000000000000000000000000000000000081525081526020016040518060400160405280600681526020017f417468656e73000000000000000000000000000000000000000000000000000081525081526020016040518060400160405280600581526020017f506172697300000000000000000000000000000000000000000000000000000081525081526020016040518060400160405280600581526020017f546f6b796f00000000000000000000000000000000000000000000000000000081525081526020016040518060400160405280600681526020017f4c6f6e646f6e000000000000000000000000000000000000000000000000000081525081526020016040518060400160405280600581526020017f4c61676f7300000000000000000000000000000000000000000000000000000081525081526020016040518060400160405280600681526020017f4475626c696e000000000000000000000000000000000000000000000000000081525081526020016040518060400160405280600681526020017f4d756e696368000000000000000000000000000000000000000000000000000081525081526020016040518060400160405280600381526020017f52696f0000000000000000000000000000000000000000000000000000000000815250815250600c9060106200046f92919062000f6e565b50604051806101c001604052806040518060400160405280600381526020017f467572000000000000000000000000000000000000000000000000000000000081525081526020016040518060400160405280600581526020017f576569726400000000000000000000000000000000000000000000000000000081525081526020016040518060400160405280600381526020017f437279000000000000000000000000000000000000000000000000000000000081525081526020016040518060400160405280600381526020017f466c79000000000000000000000000000000000000000000000000000000000081525081526020016040518060400160405280600381526020017f50696e000000000000000000000000000000000000000000000000000000000081525081526020016040518060400160405280600481526020017f576573740000000000000000000000000000000000000000000000000000000081525081526020016040518060400160405280600381526020017f536574000000000000000000000000000000000000000000000000000000000081525081526020016040518060400160405280600481526020017f436173740000000000000000000000000000000000000000000000000000000081525081526020016040518060400160405280600881526020017f506f736974696f6e00000000000000000000000000000000000000000000000081525081526020016040518060400160405280600481526020017f4c6f636b0000000000000000000000000000000000000000000000000000000081525081526020016040518060400160405280600381526020017f536974000000000000000000000000000000000000000000000000000000000081525081526020016040518060400160405280600381526020017f546178000000000000000000000000000000000000000000000000000000000081525081526020016040518060400160405280600481526020017f436c61790000000000000000000000000000000000000000000000000000000081525081526020016040518060400160405280600481526020017f4d65616e00000000000000000000000000000000000000000000000000000000815250815250600d90600e620007c692919062000fd5565b506040518061020001604052806040518060400160405280600481526020017f4572656e0000000000000000000000000000000000000000000000000000000081525081526020016040518060400160405280600581526020017f416e6e696500000000000000000000000000000000000000000000000000000081525081526020016040518060400160405280600681526020017f4d696b617361000000000000000000000000000000000000000000000000000081525081526020016040518060400160405280600681526020017f41726d696e65000000000000000000000000000000000000000000000000000081525081526020016040518060400160405280600681526020017f5265696e6572000000000000000000000000000000000000000000000000000081525081526020016040518060400160405280600581526020017f506172636f00000000000000000000000000000000000000000000000000000081525081526020016040518060400160405280600481526020017f4c6576690000000000000000000000000000000000000000000000000000000081525081526020016040518060400160405280600581526020017f536173686100000000000000000000000000000000000000000000000000000081525081526020016040518060400160405280600681526020017f436f6e6e6965000000000000000000000000000000000000000000000000000081525081526020016040518060400160405280600581526020017f48616e676500000000000000000000000000000000000000000000000000000081525081526020016040518060400160405280600481526020017f4a65616e0000000000000000000000000000000000000000000000000000000081525081526020016040518060400160405280600b81526020017f4b6f6e6f706c79616e6b6100000000000000000000000000000000000000000081525081526020016040518060400160405280600681526020017f4a6561676572000000000000000000000000000000000000000000000000000081525081526020016040518060400160405280600481526020017f596d69720000000000000000000000000000000000000000000000000000000081525081526020016040518060400160405280600481526020017f5a696b650000000000000000000000000000000000000000000000000000000081525081526020016040518060400160405280600581526020017f46616c636f000000000000000000000000000000000000000000000000000000815250815250600e90601062000b9392919062000f6e565b506040518060c001604052806040518060400160405280600381526020017f726564000000000000000000000000000000000000000000000000000000000081525081526020016040518060400160405280600781526020017f233038433241380000000000000000000000000000000000000000000000000081525081526020016040518060400160405280600581526020017f626c61636b00000000000000000000000000000000000000000000000000000081525081526020016040518060400160405280600681526020017f79656c6c6f77000000000000000000000000000000000000000000000000000081525081526020016040518060400160405280600481526020017f626c75650000000000000000000000000000000000000000000000000000000081525081526020016040518060400160405280600581526020017f677265656e000000000000000000000000000000000000000000000000000000815250815250600f90600662000d119291906200103c565b5034801562000d1f57600080fd5b506040518060400160405280600981526020017f5371756172654e465400000000000000000000000000000000000000000000008152506040518060400160405280600681526020017f5351554152450000000000000000000000000000000000000000000000000000815250816000908051906020019062000da492919062000edd565b50806001908051906020019062000dbd92919062000edd565b50505062000e0b6040518060400160405280601e81526020017f54686973206973206d79204e465420636f6e74726163742e20576f616821000081525062000e1160201b620012fa1760201c565b6200125d565b62000eb18160405160240162000e28919062001171565b6040516020818303038152906040527f41304fac000000000000000000000000000000000000000000000000000000007bffffffffffffffffffffffffffffffffffffffffffffffffffffffff19166020820180517bffffffffffffffffffffffffffffffffffffffffffffffffffffffff838183161783525050505062000eb460201b60201c565b50565b60008151905060006a636f6e736f6c652e6c6f679050602083016000808483855afa5050505050565b82805462000eeb90620011e7565b90600052602060002090601f01602090048101928262000f0f576000855562000f5b565b82601f1062000f2a57805160ff191683800117855562000f5b565b8280016001018555821562000f5b579182015b8281111562000f5a57825182559160200191906001019062000f3d565b5b50905062000f6a9190620010a3565b5090565b82805482825590600052602060002090810192821562000fc2579160200282015b8281111562000fc157825182908051906020019062000fb092919062000edd565b509160200191906001019062000f8f565b5b50905062000fd19190620010c2565b5090565b82805482825590600052602060002090810192821562001029579160200282015b82811115620010285782518290805190602001906200101792919062000edd565b509160200191906001019062000ff6565b5b509050620010389190620010c2565b5090565b82805482825590600052602060002090810192821562001090579160200282015b828111156200108f5782518290805190602001906200107e92919062000edd565b50916020019190600101906200105d565b5b5090506200109f9190620010c2565b5090565b5b80821115620010be576000816000905550600101620010a4565b5090565b5b80821115620010e65760008181620010dc9190620010ea565b50600101620010c3565b5090565b508054620010f890620011e7565b6000825580601f106200110c57506200112d565b601f0160209004906000526020600020908101906200112c9190620010a3565b5b50565b60006200113d8262001195565b620011498185620011a0565b93506200115b818560208601620011b1565b62001166816200124c565b840191505092915050565b600060208201905081810360008301526200118d818462001130565b905092915050565b600081519050919050565b600082825260208201905092915050565b60005b83811015620011d1578082015181840152602081019050620011b4565b83811115620011e1576000848401525b50505050565b600060028204905060018216806200120057607f821691505b602082108114156200121757620012166200121d565b5b50919050565b7f4e487b7100000000000000000000000000000000000000000000000000000000600052602260045260246000fd5b6000601f19601f8301169050919050565b613c30806200126d6000396000f3fe608060405234801561001057600080fd5b506004361061012c5760003560e01c80636352211e116100ad578063b88d4fde11610071578063b88d4fde14610369578063c575757a14610385578063c87b56dd146103b5578063de9d132f146103e5578063e985e9c5146103ef5761012c565b80636352211e1461029f57806370a08231146102cf57806395d89b41146102ff578063a22cb4651461031d578063b187301f146103395761012c565b806323b872dd116100f457806323b872dd146101e95780632de38d681461020557806330bdb3511461023557806342842e0e14610253578063514dc8c61461026f5761012c565b806301ffc9a714610131578063060475901461016157806306fdde031461017f578063081812fc1461019d578063095ea7b3146101cd575b600080fd5b61014b600480360381019061014691906126fa565b61041f565b6040516101589190613486565b60405180910390f35b610169610501565b6040516101769190613721565b60405180910390f35b610187610512565b60405161019491906134a1565b60405180910390f35b6101b760048036038101906101b2919061274c565b6105a4565b6040516101c491906133f6565b60405180910390f35b6101e760048036038101906101e291906126be565b610629565b005b61020360048036038101906101fe91906125b8565b610741565b005b61021f600480360381019061021a919061274c565b6107a1565b60405161022c91906134a1565b60405180910390f35b61023d6108bf565b60405161024a9190613721565b60405180910390f35b61026d600480360381019061026891906125b8565b6108c9565b005b6102896004803603810190610284919061274c565b6108e9565b60405161029691906134a1565b60405180910390f35b6102b960048036038101906102b4919061274c565b610a07565b6040516102c691906133f6565b60405180910390f35b6102e960048036038101906102e49190612553565b610ab9565b6040516102f69190613721565b60405180910390f35b610307610b71565b60405161031491906134a1565b60405180910390f35b61033760048036038101906103329190612682565b610c03565b005b610353600480360381019061034e919061274c565b610c19565b60405161036091906134a1565b60405180910390f35b610383600480360381019061037e9190612607565b610d37565b005b61039f600480360381019061039a919061274c565b610d99565b6040516103ac91906134a1565b60405180910390f35b6103cf60048036038101906103ca919061274c565b610eb7565b6040516103dc91906134a1565b60405180910390f35b6103ed611009565b005b6104096004803603810190610404919061257c565b611266565b6040516104169190613486565b60405180910390f35b60007f80ac58cd000000000000000000000000000000000000000000000000000000007bffffffffffffffffffffffffffffffffffffffffffffffffffffffff1916827bffffffffffffffffffffffffffffffffffffffffffffffffffffffff191614806104ea57507f5b5e139f000000000000000000000000000000000000000000000000000000007bffffffffffffffffffffffffffffffffffffffffffffffffffffffff1916827bffffffffffffffffffffffffffffffffffffffffffffffffffffffff1916145b806104fa57506104f982611393565b5b9050919050565b600061050d60076113fd565b905090565b606060008054610521906139c0565b80601f016020809104026020016040519081016040528092919081815260200182805461054d906139c0565b801561059a5780601f1061056f5761010080835404028352916020019161059a565b820191906000526020600020905b81548152906001019060200180831161057d57829003601f168201915b5050505050905090565b60006105af8261140b565b6105ee576040517f08c379a00000000000000000000000000000000000000000000000000000000081526004016105e590613661565b60405180910390fd5b6004600083815260200190815260200160002060009054906101000a900473ffffffffffffffffffffffffffffffffffffffff169050919050565b600061063482610a07565b90508073ffffffffffffffffffffffffffffffffffffffff168373ffffffffffffffffffffffffffffffffffffffff1614156106a5576040517f08c379a000000000000000000000000000000000000000000000000000000000815260040161069c906136e1565b60405180910390fd5b8073ffffffffffffffffffffffffffffffffffffffff166106c4611477565b73ffffffffffffffffffffffffffffffffffffffff1614806106f357506106f2816106ed611477565b611266565b5b610732576040517f08c379a0000000000000000000000000000000000000000000000000000000008152600401610729906135a1565b60405180910390fd5b61073c838361147f565b505050565b61075261074c611477565b82611538565b610791576040517f08c379a000000000000000000000000000000000000000000000000000000000815260040161078890613701565b60405180910390fd5b61079c838383611616565b505050565b606060006107d56107b184611872565b6040516020016107c19190613390565b604051602081830303815290604052611a1f565b9050600c80549050816107e89190613a3b565b9050600c8181548110610824577f4e487b7100000000000000000000000000000000000000000000000000000000600052603260045260246000fd5b906000526020600020018054610839906139c0565b80601f0160208091040260200160405190810160405280929190818152602001828054610865906139c0565b80156108b25780601f10610887576101008083540402835291602001916108b2565b820191906000526020600020905b81548152906001019060200180831161089557829003601f168201915b5050505050915050919050565b6000600854905090565b6108e483838360405180602001604052806000815250610d37565b505050565b6060600061091d6108f984611872565b60405160200161090991906133d4565b604051602081830303815290604052611a1f565b9050600f80549050816109309190613a3b565b9050600f818154811061096c577f4e487b7100000000000000000000000000000000000000000000000000000000600052603260045260246000fd5b906000526020600020018054610981906139c0565b80601f01602080910402602001604051908101604052809291908181526020018280546109ad906139c0565b80156109fa5780601f106109cf576101008083540402835291602001916109fa565b820191906000526020600020905b8154815290600101906020018083116109dd57829003601f168201915b5050505050915050919050565b6000806002600084815260200190815260200160002060009054906101000a900473ffffffffffffffffffffffffffffffffffffffff169050600073ffffffffffffffffffffffffffffffffffffffff168173ffffffffffffffffffffffffffffffffffffffff161415610ab0576040517f08c379a0000000000000000000000000000000000000000000000000000000008152600401610aa7906135e1565b60405180910390fd5b80915050919050565b60008073ffffffffffffffffffffffffffffffffffffffff168273ffffffffffffffffffffffffffffffffffffffff161415610b2a576040517f08c379a0000000000000000000000000000000000000000000000000000000008152600401610b21906135c1565b60405180910390fd5b600360008373ffffffffffffffffffffffffffffffffffffffff1673ffffffffffffffffffffffffffffffffffffffff168152602001908152602001600020549050919050565b606060018054610b80906139c0565b80601f0160208091040260200160405190810160405280929190818152602001828054610bac906139c0565b8015610bf95780601f10610bce57610100808354040283529160200191610bf9565b820191906000526020600020905b815481529060010190602001808311610bdc57829003601f168201915b5050505050905090565b610c15610c0e611477565b8383611a52565b5050565b60606000610c4d610c2984611872565b604051602001610c399190613329565b604051602081830303815290604052611a1f565b9050600d8054905081610c609190613a3b565b9050600d8181548110610c9c577f4e487b7100000000000000000000000000000000000000000000000000000000600052603260045260246000fd5b906000526020600020018054610cb1906139c0565b80601f0160208091040260200160405190810160405280929190818152602001828054610cdd906139c0565b8015610d2a5780601f10610cff57610100808354040283529160200191610d2a565b820191906000526020600020905b815481529060010190602001808311610d0d57829003601f168201915b5050505050915050919050565b610d48610d42611477565b83611538565b610d87576040517f08c379a0000000000000000000000000000000000000000000000000000000008152600401610d7e90613701565b60405180910390fd5b610d9384848484611bbf565b50505050565b60606000610dcd610da984611872565b604051602001610db99190613307565b604051602081830303815290604052611a1f565b9050600e8054905081610de09190613a3b565b9050600e8181548110610e1c577f4e487b7100000000000000000000000000000000000000000000000000000000600052603260045260246000fd5b906000526020600020018054610e31906139c0565b80601f0160208091040260200160405190810160405280929190818152602001828054610e5d906139c0565b8015610eaa5780601f10610e7f57610100808354040283529160200191610eaa565b820191906000526020600020905b815481529060010190602001808311610e8d57829003601f168201915b5050505050915050919050565b6060610ec28261140b565b610f01576040517f08c379a0000000000000000000000000000000000000000000000000000000008152600401610ef890613641565b60405180910390fd5b6000600660008481526020019081526020016000208054610f21906139c0565b80601f0160208091040260200160405190810160405280929190818152602001828054610f4d906139c0565b8015610f9a5780601f10610f6f57610100808354040283529160200191610f9a565b820191906000526020600020905b815481529060010190602001808311610f7d57829003601f168201915b505050505090506000610fab611c1b565b9050600081511415610fc1578192505050611004565b600082511115610ff6578082604051602001610fde929190613247565b60405160208183030381529060405292505050611004565b610fff84611c32565b925050505b919050565b600061101560076113fd565b9050600854811061105b576040517f08c379a000000000000000000000000000000000000000000000000000000000815260040161105290613681565b60405180910390fd5b6000611066826107a1565b9050600061107383610c19565b9050600061108084610d99565b905060008383836040516020016110999392919061326b565b604051602081830303815290604052905060006110b5866108e9565b90506000600a82600b856040516020016110d2949392919061329c565b60405160208183030381529060405290506000611117846110f284611cd9565b60405160200161110392919061334b565b604051602081830303815290604052611cd9565b905060008160405160200161112c91906133b2565b604051602081830303815290604052905061117b6040518060400160405280601581526020017f0a2d2d2d2d2d2d2d2d2d2d2d2d2d2d2d2d2d2d2d2d00000000000000000000008152506112fa565b6111a38160405160200161118f91906132e5565b6040516020818303038152906040526112fa565b6111e16040518060400160405280601581526020017f2d2d2d2d2d2d2d2d2d2d2d2d2d2d2d2d2d2d2d2d0a00000000000000000000008152506112fa565b6111eb338a611e97565b6111f58982611eb5565b6111ff6007611f29565b611222604051806060016040528060258152602001613b96602591398a33611f3f565b7febb98688741ffa4c7589bf325de30cf7becb63de567842e1ccdb6cb949fdc82c338a60405161125392919061345d565b60405180910390a1505050505050505050565b6000600560008473ffffffffffffffffffffffffffffffffffffffff1673ffffffffffffffffffffffffffffffffffffffff16815260200190815260200160002060008373ffffffffffffffffffffffffffffffffffffffff1673ffffffffffffffffffffffffffffffffffffffff16815260200190815260200160002060009054906101000a900460ff16905092915050565b6113908160405160240161130e91906134a1565b6040516020818303038152906040527f41304fac000000000000000000000000000000000000000000000000000000007bffffffffffffffffffffffffffffffffffffffffffffffffffffffff19166020820180517bffffffffffffffffffffffffffffffffffffffffffffffffffffffff8381831617835250505050611fde565b50565b60007f01ffc9a7000000000000000000000000000000000000000000000000000000007bffffffffffffffffffffffffffffffffffffffffffffffffffffffff1916827bffffffffffffffffffffffffffffffffffffffffffffffffffffffff1916149050919050565b600081600001549050919050565b60008073ffffffffffffffffffffffffffffffffffffffff166002600084815260200190815260200160002060009054906101000a900473ffffffffffffffffffffffffffffffffffffffff1673ffffffffffffffffffffffffffffffffffffffff1614159050919050565b600033905090565b816004600083815260200190815260200160002060006101000a81548173ffffffffffffffffffffffffffffffffffffffff021916908373ffffffffffffffffffffffffffffffffffffffff160217905550808273ffffffffffffffffffffffffffffffffffffffff166114f283610a07565b73ffffffffffffffffffffffffffffffffffffffff167f8c5be1e5ebec7d5bd14f71427d1e84f3dd0314c0f7b2291e5b200ac8c7c3b92560405160405180910390a45050565b60006115438261140b565b611582576040517f08c379a000000000000000000000000000000000000000000000000000000000815260040161157990613581565b60405180910390fd5b600061158d83610a07565b90508073ffffffffffffffffffffffffffffffffffffffff168473ffffffffffffffffffffffffffffffffffffffff1614806115fc57508373ffffffffffffffffffffffffffffffffffffffff166115e4846105a4565b73ffffffffffffffffffffffffffffffffffffffff16145b8061160d575061160c8185611266565b5b91505092915050565b8273ffffffffffffffffffffffffffffffffffffffff1661163682610a07565b73ffffffffffffffffffffffffffffffffffffffff161461168c576040517f08c379a0000000000000000000000000000000000000000000000000000000008152600401611683906136a1565b60405180910390fd5b600073ffffffffffffffffffffffffffffffffffffffff168273ffffffffffffffffffffffffffffffffffffffff1614156116fc576040517f08c379a00000000000000000000000000000000000000000000000000000000081526004016116f390613541565b60405180910390fd5b611707838383612007565b61171260008261147f565b6001600360008573ffffffffffffffffffffffffffffffffffffffff1673ffffffffffffffffffffffffffffffffffffffff168152602001908152602001600020600082825461176291906138d6565b925050819055506001600360008473ffffffffffffffffffffffffffffffffffffffff1673ffffffffffffffffffffffffffffffffffffffff16815260200190815260200160002060008282546117b991906137f5565b92505081905550816002600083815260200190815260200160002060006101000a81548173ffffffffffffffffffffffffffffffffffffffff021916908373ffffffffffffffffffffffffffffffffffffffff160217905550808273ffffffffffffffffffffffffffffffffffffffff168473ffffffffffffffffffffffffffffffffffffffff167fddf252ad1be2c89b69c2b068fc378daa952ba7f163c4a11628f55a4df523b3ef60405160405180910390a4505050565b606060008214156118ba576040518060400160405280600181526020017f30000000000000000000000000000000000000000000000000000000000000008152509050611a1a565b600082905060005b600082146118ec5780806118d5906139f2565b915050600a826118e5919061384b565b91506118c2565b60008167ffffffffffffffff81111561192e577f4e487b7100000000000000000000000000000000000000000000000000000000600052604160045260246000fd5b6040519080825280601f01601f1916602001820160405280156119605781602001600182028036833780820191505090505b5090505b60008514611a135760018261197991906138d6565b9150600a856119889190613a3b565b603061199491906137f5565b60f81b8183815181106119d0577f4e487b7100000000000000000000000000000000000000000000000000000000600052603260045260246000fd5b60200101907effffffffffffffffffffffffffffffffffffffffffffffffffffffffffffff1916908160001a905350600a85611a0c919061384b565b9450611964565b8093505050505b919050565b600081604051602001611a329190613230565b6040516020818303038152906040528051906020012060001c9050919050565b8173ffffffffffffffffffffffffffffffffffffffff168373ffffffffffffffffffffffffffffffffffffffff161415611ac1576040517f08c379a0000000000000000000000000000000000000000000000000000000008152600401611ab890613561565b60405180910390fd5b80600560008573ffffffffffffffffffffffffffffffffffffffff1673ffffffffffffffffffffffffffffffffffffffff16815260200190815260200160002060008473ffffffffffffffffffffffffffffffffffffffff1673ffffffffffffffffffffffffffffffffffffffff16815260200190815260200160002060006101000a81548160ff0219169083151502179055508173ffffffffffffffffffffffffffffffffffffffff168373ffffffffffffffffffffffffffffffffffffffff167f17307eab39ab6107e8899845ad3d59bd9653f200f220920489ca2b5937696c3183604051611bb29190613486565b60405180910390a3505050565b611bca848484611616565b611bd68484848461200c565b611c15576040517f08c379a0000000000000000000000000000000000000000000000000000000008152600401611c0c90613501565b60405180910390fd5b50505050565b606060405180602001604052806000815250905090565b6060611c3d8261140b565b611c7c576040517f08c379a0000000000000000000000000000000000000000000000000000000008152600401611c73906136c1565b60405180910390fd5b6000611c86611c1b565b90506000815111611ca65760405180602001604052806000815250611cd1565b80611cb084611872565b604051602001611cc1929190613247565b6040516020818303038152906040525b915050919050565b60606000825190506000811415611d025760405180602001604052806000815250915050611e92565b60006003600283611d1391906137f5565b611d1d919061384b565b6004611d29919061387c565b90506000602082611d3a91906137f5565b67ffffffffffffffff811115611d79577f4e487b7100000000000000000000000000000000000000000000000000000000600052604160045260246000fd5b6040519080825280601f01601f191660200182016040528015611dab5781602001600182028036833780820191505090505b5090506000604051806060016040528060408152602001613bbb604091399050600181016020830160005b86811015611e4f5760038101905062ffffff818a015116603f8160121c168401518060081b905060ff603f83600c1c1686015116810190508060081b905060ff603f8360061c1686015116810190508060081b905060ff603f831686015116810190508060e01b90508084526004840193505050611dd6565b506003860660018114611e695760028114611e7957611e84565b613d3d60f01b6002830352611e84565b603d60f81b60018303525b508484525050819450505050505b919050565b611eb18282604051806020016040528060008152506121a3565b5050565b611ebe8261140b565b611efd576040517f08c379a0000000000000000000000000000000000000000000000000000000008152600401611ef490613601565b60405180910390fd5b80600660008481526020019081526020016000209080519060200190611f249291906123df565b505050565b6001816000016000828254019250508190555050565b611fd9838383604051602401611f57939291906134c3565b6040516020818303038152906040527fe3849f79000000000000000000000000000000000000000000000000000000007bffffffffffffffffffffffffffffffffffffffffffffffffffffffff19166020820180517bffffffffffffffffffffffffffffffffffffffffffffffffffffffff8381831617835250505050611fde565b505050565b60008151905060006a636f6e736f6c652e6c6f679050602083016000808483855afa5050505050565b505050565b600061202d8473ffffffffffffffffffffffffffffffffffffffff166121fe565b15612196578373ffffffffffffffffffffffffffffffffffffffff1663150b7a02612056611477565b8786866040518563ffffffff1660e01b81526004016120789493929190613411565b602060405180830381600087803b15801561209257600080fd5b505af19250505080156120c357506040513d601f19601f820116820180604052508101906120c09190612723565b60015b612146573d80600081146120f3576040519150601f19603f3d011682016040523d82523d6000602084013e6120f8565b606091505b5060008151141561213e576040517f08c379a000000000000000000000000000000000000000000000000000000000815260040161213590613501565b60405180910390fd5b805181602001fd5b63150b7a0260e01b7bffffffffffffffffffffffffffffffffffffffffffffffffffffffff1916817bffffffffffffffffffffffffffffffffffffffffffffffffffffffff19161491505061219b565b600190505b949350505050565b6121ad8383612211565b6121ba600084848461200c565b6121f9576040517f08c379a00000000000000000000000000000000000000000000000000000000081526004016121f090613501565b60405180910390fd5b505050565b600080823b905060008111915050919050565b600073ffffffffffffffffffffffffffffffffffffffff168273ffffffffffffffffffffffffffffffffffffffff161415612281576040517f08c379a000000000000000000000000000000000000000000000000000000000815260040161227890613621565b60405180910390fd5b61228a8161140b565b156122ca576040517f08c379a00000000000000000000000000000000000000000000000000000000081526004016122c190613521565b60405180910390fd5b6122d660008383612007565b6001600360008473ffffffffffffffffffffffffffffffffffffffff1673ffffffffffffffffffffffffffffffffffffffff168152602001908152602001600020600082825461232691906137f5565b92505081905550816002600083815260200190815260200160002060006101000a81548173ffffffffffffffffffffffffffffffffffffffff021916908373ffffffffffffffffffffffffffffffffffffffff160217905550808273ffffffffffffffffffffffffffffffffffffffff16600073ffffffffffffffffffffffffffffffffffffffff167fddf252ad1be2c89b69c2b068fc378daa952ba7f163c4a11628f55a4df523b3ef60405160405180910390a45050565b8280546123eb906139c0565b90600052602060002090601f01602090048101928261240d5760008555612454565b82601f1061242657805160ff1916838001178555612454565b82800160010185558215612454579182015b82811115612453578251825591602001919060010190612438565b5b5090506124619190612465565b5090565b5b8082111561247e576000816000905550600101612466565b5090565b60006124956124908461376d565b61373c565b9050828152602081018484840111156124ad57600080fd5b6124b884828561397e565b509392505050565b6000813590506124cf81613b39565b92915050565b6000813590506124e481613b50565b92915050565b6000813590506124f981613b67565b92915050565b60008151905061250e81613b67565b92915050565b600082601f83011261252557600080fd5b8135612535848260208601612482565b91505092915050565b60008135905061254d81613b7e565b92915050565b60006020828403121561256557600080fd5b6000612573848285016124c0565b91505092915050565b6000806040838503121561258f57600080fd5b600061259d858286016124c0565b92505060206125ae858286016124c0565b9150509250929050565b6000806000606084860312156125cd57600080fd5b60006125db868287016124c0565b93505060206125ec868287016124c0565b92505060406125fd8682870161253e565b9150509250925092565b6000806000806080858703121561261d57600080fd5b600061262b878288016124c0565b945050602061263c878288016124c0565b935050604061264d8782880161253e565b925050606085013567ffffffffffffffff81111561266a57600080fd5b61267687828801612514565b91505092959194509250565b6000806040838503121561269557600080fd5b60006126a3858286016124c0565b92505060206126b4858286016124d5565b9150509250929050565b600080604083850312156126d157600080fd5b60006126df858286016124c0565b92505060206126f08582860161253e565b9150509250929050565b60006020828403121561270c57600080fd5b600061271a848285016124ea565b91505092915050565b60006020828403121561273557600080fd5b6000612743848285016124ff565b91505092915050565b60006020828403121561275e57600080fd5b600061276c8482850161253e565b91505092915050565b61277e8161390a565b82525050565b61278d8161391c565b82525050565b600061279e826137b2565b6127a881856137c8565b93506127b881856020860161398d565b6127c181613b28565b840191505092915050565b60006127d7826137bd565b6127e181856137d9565b93506127f181856020860161398d565b6127fa81613b28565b840191505092915050565b6000612810826137bd565b61281a81856137ea565b935061282a81856020860161398d565b80840191505092915050565b60008154612843816139c0565b61284d81866137ea565b945060018216600081146128685760018114612879576128ac565b60ff198316865281860193506128ac565b6128828561379d565b60005b838110156128a457815481890152600182019150602081019050612885565b838801955050505b50505092915050565b60006128c26025836137ea565b91507f68747470733a2f2f6e6674707265766965772e30786465762e636f6465732f3f60008301527f636f64653d0000000000000000000000000000000000000000000000000000006020830152602582019050919050565b60006129286032836137d9565b91507f4552433732313a207472616e7366657220746f206e6f6e20455243373231526560008301527f63656976657220696d706c656d656e74657200000000000000000000000000006020830152604082019050919050565b600061298e601c836137d9565b91507f4552433732313a20746f6b656e20616c7265616479206d696e746564000000006000830152602082019050919050565b60006129ce600a836137ea565b91507f54484952445f574f5244000000000000000000000000000000000000000000006000830152600a82019050919050565b6000612a0e6024836137d9565b91507f4552433732313a207472616e7366657220746f20746865207a65726f2061646460008301527f72657373000000000000000000000000000000000000000000000000000000006020830152604082019050919050565b6000612a746019836137d9565b91507f4552433732313a20617070726f766520746f2063616c6c6572000000000000006000830152602082019050919050565b6000612ab46063836137ea565b91507f222c20226465736372697074696f6e223a20224120686967686c79206163636c60008301527f61696d656420636f6c6c656374696f6e206f6620737175617265732e222c202260208301527f696d616765223a2022646174613a696d6167652f7376672b786d6c3b6261736560408301527f36342c00000000000000000000000000000000000000000000000000000000006060830152606382019050919050565b6000612b66600b836137ea565b91507f5345434f4e445f574f52440000000000000000000000000000000000000000006000830152600b82019050919050565b6000612ba6602c836137d9565b91507f4552433732313a206f70657261746f7220717565727920666f72206e6f6e657860008301527f697374656e7420746f6b656e00000000000000000000000000000000000000006020830152604082019050919050565b6000612c0c600d836137ea565b91507f3c2f746578743e3c2f7376673e000000000000000000000000000000000000006000830152600d82019050919050565b6000612c4c6038836137d9565b91507f4552433732313a20617070726f76652063616c6c6572206973206e6f74206f7760008301527f6e6572206e6f7220617070726f76656420666f7220616c6c00000000000000006020830152604082019050919050565b6000612cb2602a836137d9565b91507f4552433732313a2062616c616e636520717565727920666f7220746865207a6560008301527f726f2061646472657373000000000000000000000000000000000000000000006020830152604082019050919050565b6000612d186029836137d9565b91507f4552433732313a206f776e657220717565727920666f72206e6f6e657869737460008301527f656e7420746f6b656e00000000000000000000000000000000000000000000006020830152604082019050919050565b6000612d7e602e836137d9565b91507f45524337323155524953746f726167653a2055524920736574206f66206e6f6e60008301527f6578697374656e7420746f6b656e0000000000000000000000000000000000006020830152604082019050919050565b6000612de46002836137ea565b91507f227d0000000000000000000000000000000000000000000000000000000000006000830152600282019050919050565b6000612e246020836137d9565b91507f4552433732313a206d696e7420746f20746865207a65726f20616464726573736000830152602082019050919050565b6000612e646031836137d9565b91507f45524337323155524953746f726167653a2055524920717565727920666f722060008301527f6e6f6e6578697374656e7420746f6b656e0000000000000000000000000000006020830152604082019050919050565b6000612eca602c836137d9565b91507f4552433732313a20617070726f76656420717565727920666f72206e6f6e657860008301527f697374656e7420746f6b656e00000000000000000000000000000000000000006020830152604082019050919050565b6000612f306021836137d9565b91507f57652068617665206d696e74656420616c6c20617661696c61626c65206e746660008301527f73000000000000000000000000000000000000000000000000000000000000006020830152604082019050919050565b6000612f966029836137d9565b91507f4552433732313a207472616e73666572206f6620746f6b656e2074686174206960008301527f73206e6f74206f776e00000000000000000000000000000000000000000000006020830152604082019050919050565b6000612ffc602f836137d9565b91507f4552433732314d657461646174613a2055524920717565727920666f72206e6f60008301527f6e6578697374656e7420746f6b656e00000000000000000000000000000000006020830152604082019050919050565b6000613062600a836137ea565b91507f7b226e616d65223a2022000000000000000000000000000000000000000000006000830152600a82019050919050565b60006130a26021836137d9565b91507f4552433732313a20617070726f76616c20746f2063757272656e74206f776e6560008301527f72000000000000000000000000000000000000000000000000000000000000006020830152604082019050919050565b6000613108600a836137ea565b91507f46495253545f574f5244000000000000000000000000000000000000000000006000830152600a82019050919050565b6000613148601d836137ea565b91507f646174613a6170706c69636174696f6e2f6a736f6e3b6261736536342c0000006000830152601d82019050919050565b60006131886031836137d9565b91507f4552433732313a207472616e736665722063616c6c6572206973206e6f74206f60008301527f776e6572206e6f7220617070726f7665640000000000000000000000000000006020830152604082019050919050565b60006131ee6005836137ea565b91507f434f4c4f520000000000000000000000000000000000000000000000000000006000830152600582019050919050565b61322a81613974565b82525050565b600061323c8284612805565b915081905092915050565b60006132538285612805565b915061325f8284612805565b91508190509392505050565b60006132778286612805565b91506132838285612805565b915061328f8284612805565b9150819050949350505050565b60006132a88287612836565b91506132b48286612805565b91506132c08285612836565b91506132cc8284612805565b91506132d782612bff565b915081905095945050505050565b60006132f0826128b5565b91506132fc8284612805565b915081905092915050565b6000613312826129c1565b915061331e8284612805565b915081905092915050565b600061333482612b59565b91506133408284612805565b915081905092915050565b600061335682613055565b91506133628285612805565b915061336d82612aa7565b91506133798284612805565b915061338482612dd7565b91508190509392505050565b600061339b826130fb565b91506133a78284612805565b915081905092915050565b60006133bd8261313b565b91506133c98284612805565b915081905092915050565b60006133df826131e1565b91506133eb8284612805565b915081905092915050565b600060208201905061340b6000830184612775565b92915050565b60006080820190506134266000830187612775565b6134336020830186612775565b6134406040830185613221565b81810360608301526134528184612793565b905095945050505050565b60006040820190506134726000830185612775565b61347f6020830184613221565b9392505050565b600060208201905061349b6000830184612784565b92915050565b600060208201905081810360008301526134bb81846127cc565b905092915050565b600060608201905081810360008301526134dd81866127cc565b90506134ec6020830185613221565b6134f96040830184612775565b949350505050565b6000602082019050818103600083015261351a8161291b565b9050919050565b6000602082019050818103600083015261353a81612981565b9050919050565b6000602082019050818103600083015261355a81612a01565b9050919050565b6000602082019050818103600083015261357a81612a67565b9050919050565b6000602082019050818103600083015261359a81612b99565b9050919050565b600060208201905081810360008301526135ba81612c3f565b9050919050565b600060208201905081810360008301526135da81612ca5565b9050919050565b600060208201905081810360008301526135fa81612d0b565b9050919050565b6000602082019050818103600083015261361a81612d71565b9050919050565b6000602082019050818103600083015261363a81612e17565b9050919050565b6000602082019050818103600083015261365a81612e57565b9050919050565b6000602082019050818103600083015261367a81612ebd565b9050919050565b6000602082019050818103600083015261369a81612f23565b9050919050565b600060208201905081810360008301526136ba81612f89565b9050919050565b600060208201905081810360008301526136da81612fef565b9050919050565b600060208201905081810360008301526136fa81613095565b9050919050565b6000602082019050818103600083015261371a8161317b565b9050919050565b60006020820190506137366000830184613221565b92915050565b6000604051905081810181811067ffffffffffffffff8211171561376357613762613af9565b5b8060405250919050565b600067ffffffffffffffff82111561378857613787613af9565b5b601f19601f8301169050602081019050919050565b60008190508160005260206000209050919050565b600081519050919050565b600081519050919050565b600082825260208201905092915050565b600082825260208201905092915050565b600081905092915050565b600061380082613974565b915061380b83613974565b9250827fffffffffffffffffffffffffffffffffffffffffffffffffffffffffffffffff038211156138405761383f613a6c565b5b828201905092915050565b600061385682613974565b915061386183613974565b92508261387157613870613a9b565b5b828204905092915050565b600061388782613974565b915061389283613974565b9250817fffffffffffffffffffffffffffffffffffffffffffffffffffffffffffffffff04831182151516156138cb576138ca613a6c565b5b828202905092915050565b60006138e182613974565b91506138ec83613974565b9250828210156138ff576138fe613a6c565b5b828203905092915050565b600061391582613954565b9050919050565b60008115159050919050565b60007fffffffff0000000000000000000000000000000000000000000000000000000082169050919050565b600073ffffffffffffffffffffffffffffffffffffffff82169050919050565b6000819050919050565b82818337600083830152505050565b60005b838110156139ab578082015181840152602081019050613990565b838111156139ba576000848401525b50505050565b600060028204905060018216806139d857607f821691505b602082108114156139ec576139eb613aca565b5b50919050565b60006139fd82613974565b91507fffffffffffffffffffffffffffffffffffffffffffffffffffffffffffffffff821415613a3057613a2f613a6c565b5b600182019050919050565b6000613a4682613974565b9150613a5183613974565b925082613a6157613a60613a9b565b5b828206905092915050565b7f4e487b7100000000000000000000000000000000000000000000000000000000600052601160045260246000fd5b7f4e487b7100000000000000000000000000000000000000000000000000000000600052601260045260246000fd5b7f4e487b7100000000000000000000000000000000000000000000000000000000600052602260045260246000fd5b7f4e487b7100000000000000000000000000000000000000000000000000000000600052604160045260246000fd5b6000601f19601f8301169050919050565b613b428161390a565b8114613b4d57600080fd5b50565b613b598161391c565b8114613b6457600080fd5b50565b613b7081613928565b8114613b7b57600080fd5b50565b613b8781613974565b8114613b9257600080fd5b5056fe416e204e465420772f20494420257320686173206265656e206d696e74656420746f2025734142434445464748494a4b4c4d4e4f505152535455565758595a6162636465666768696a6b6c6d6e6f707172737475767778797a303132333435363738392b2fa2646970667358221220bcb693672038e924a7d67faba1c73642760c3b5595e2200ef86ecd607f051ef064736f6c634300080000333c73766720786d6c6e733d27687474703a2f2f7777772e77332e6f72672f323030302f73766727207072657365727665417370656374526174696f3d27784d696e594d696e206d656574272076696577426f783d273020302033353020333530273e3c7374796c653e2e62617365207b2066696c6c3a2077686974653b20666f6e742d66616d696c793a2073657269663b20666f6e742d73697a653a20323470783b207d3c2f7374796c653e3c726563742077696474683d273130302527206865696768743d2731303025272066696c6c3d27626c61636b27202f3e3c7465787420783d273530252720793d273530252720636c6173733d27626173652720646f6d696e616e742d626173656c696e653d276d6964646c652720746578742d616e63686f723d276d6964646c65273e3c73766720786d6c6e733d27687474703a2f2f7777772e77332e6f72672f323030302f73766727207072657365727665417370656374526174696f3d27784d696e594d696e206d656574272076696577426f783d273020302033353020333530273e3c7374796c653e2e62617365207b2066696c6c3a2077686974653b20666f6e742d66616d696c793a2073657269663b20666f6e742d73697a653a20323470783b207d3c2f7374796c653e3c726563742077696474683d273130302527206865696768743d2731303025272066696c6c3d27272f3e3c7465787420783d273530252720793d273530252720636c6173733d27626173652720646f6d696e616e742d626173656c696e653d276d6964646c652720746578742d616e63686f723d276d6964646c65273e",
  "linkReferences": {},
  "deployedLinkReferences": {}
}